:020000040800F2
:10000000A00500200101000857150008D3130008BF
:1000100055150008BB020008451C00080000000040
:100020000000000000000000000000001D18000893
:10003000BD02000800000000591500081F18000844
:100040001B0100081B0100081B0100081B01000820
:100050001B0100081B0100081B0100081B01000810
:100060001B0100081B0100081B0100081B01000800
:100070001B0100081B0100081B0100081B010008F0
:100080001B0100081B0100081B0100081B010008E0
:100090001B0100081B0100081B0100081B010008D0
:1000A0001B0100081B0100081B0100081B010008C0
:1000B000B91800081B0100081B0100081B010008FB
:1000C0001B0100081B0100081B0100081B010008A0
:1000D0001B010008391C00081B0100081B01000857
:1000E0001B0100081B0100081B010008DFF80CD0F1
:1000F00000F070F800480047911C0008A00500209F
:100100000648804706480047FEE7FEE7FEE7FEE7B1
:10011000FEE7FEE7FEE7FEE7FEE7FEE771180008F0
:10012000ED000008D2B201E000F8012B491EFBD21D
:1001300070470022F6E710B513460A4604461946F2
:10014000FFF7F0FF204610BD70B5064601F08CFDAC
:10015000046805460A220021304600F002F82C60AF
:1001600070BD2DE9F04791460F46804604460026B3
:1001700014F8015B2DB100F03FF80068405DC00746
:10018000F6D12B2D02D02D2D18D0641E4A463946AB
:10019000204600F035F827B13968A14201D1C7F8EF
:1001A000008071054FF002040BD54042002803DDAA
:1001B00001F05AFD0460A007BDE8F08746F48066B0
:1001C000E4E70028F8DA01F04FFD04606FF000402A
:1001D000F2E70000064C074D06E0E06840F001033E
:1001E00094E8070098471034AC42F6D3FFF782FF3B
:1001F000941D0008B41D000800487047901D0008B9
:100200002DE9F05F82460078002715468B460AF1FB
:100210000104B946302801D09DB113E014F8010B58
:100220000127782803D0582801D045B10AE00DB144
:10023000102D07D10027102514F8010B02E0082526
:1002400000E00A250026B0460EE005FB080005FB8D
:1002500006F1012701EB10461FFA80F8B6F5803F42
:1002600000D3B94614F8010B294600F018F800280D
:10027000EBDABBF1000F05D00FB1641E00E054466D
:10028000CBF80040B9F1000F06D001F0EDFC0221DF
:100290000160C81EBDE8F09F48EA0640FAE73A2828
:1002A00000D2303820F02002412A01D3A2F13700D9
:1002B000884201D34FF0FF307047FEE770470000DF
:1002C00070B5234E0D46044601220221304600F04F
:1002D00093F901220421304600F08EF91D4814B133
:1002E000012C03D006E00022022101E000220421BB
:1002F00000F082F90A2D23D2DFE805F005080B0E85
:100300001114171A1D2001F065FA19E001F0D8F94F
:1003100016E001F03FFA13E001F01CFA10E001F0E2
:1003200067F90DE001F044F90AE001F0EFF907E0A8
:1003300001F0D6F904E001F011F901E001F072F9E1
:10034000022000F057F8BDE8704001F08FB90000BE
:10035000000C0140000801407047000010B590F803
:1003600021100024022903D00421816301243DE0EF
:1003700001680A6822F00E020A6001680A6822F029
:1003800001020A601A4A0168914201D1012121E06B
:10039000174A1432914201D110211BE0144A28322D
:1003A000914201D1891515E0114A3C32914201D1A7
:1003B00089140FE00E4A5032914202D14FF480313D
:1003C00008E00B4A6432914202D14FF4801101E0FF
:1003D0004FF08071064A083A5160012180F82110DF
:1003E000002180F82010416B01B18847204610BDE4
:1003F0000800024070B5044600F004F90546601C90
:1004000002D004480078044400F0FCF8401BA042ED
:10041000FAD370BD0C0000202DE9F84FDFF8B89139
:10042000002409F1040A0AF1040B23460F270BF1FB
:10043000040EC9E00125A5402A40AA427DD1674E9D
:10044000D1F804C0ACEB0608B44532D014DCBCF1E2
:10045000030F3AD009DCBCF1000F2AD0BCF1010F28
:100460001CD0BCF1020F31D11DE0BCF1110F17D02F
:10047000BCF1120F2AD119E0B8F5881F19D006DC9B
:10048000B8F5803F15D0B8F5801F1FD111E0B8F541
:10049000001F0ED0B8F5041F18D10AE0CB6815E094
:1004A000CB681B1D12E0CB6808330FE0CB680C3320
:1004B0000CE08B682BB1012B4FF0080303D0456192
:1004C00004E0042302E0056100E00023FF2A01D8D4
:1004D000064601E000F104064FEA840501D9A5F1C2
:1004E0002005D6F8008007FA05FC28EA0C0803FA74
:1004F00005F548EA0508C6F800804D68ED0062D5AC
:10050000374DAE6946F00106AE61AD6924F00306D1
:1005100005F001050095334D06EB050CDCF808509D
:10052000A607360F07FA06F825EA0805DFF8B880AF
:10053000404503D14FF0000817E044E0DFF8AC80FD
:10054000404502D14FF001080FE0DFF8A48040459C
:1005500002D14FF0020808E0DFF89880404502D150
:100560004FF0030801E04FF0040808FA06F848EAE3
:100570000508CCF808804D68D9F80060ED034D46B9
:1005800001D5164300E096432E604D68DAF800600E
:10059000AD03554601D5164300E096432E604D68E5
:1005A000DBF80060ED025D4601D5164300E096439E
:1005B0002E604D68DEF80060AD02754601D5164329
:1005C00000E096432E60641C0D682A46E5407FF4E7
:1005D00031AFBDE8F88F00000004014000001110A9
:1005E000001002400000014000080140000C0140E2
:1005F00000100140001401400AB101617047090474
:10060000FBE7000001488068704700000C000020F4
:100610000248816802781144816070470C00002014
:10062000074810B5016841F010010160032000F097
:1006300075F8002000F006F800F024F8002010BD46
:100640000020024070B50D4D04464FF47A712878B1
:10065000B1FBF0F00A490968B1FBF0F000F0ECFAE8
:1006600048B9102C07D200222146501E00F036F85F
:1006700000206C6070BD012070BD00000C000020E7
:10068000180000200C4808B5816941F00101816122
:10069000816901F001010091C16941F08051C1619E
:1006A000C06900F0805000900448416821F0E0618A
:1006B00041F00071416008BD00100240000001409F
:1006C000002809DB00F01F02012191404009800051
:1006D00000F1E020C0F8001170470000F0B40E4BAC
:1006E0001B680C46C3F30223C3F10705042D00D990
:1006F0000425191D072901D2002300E0DB1E012675
:1007000006FA05F1491E214099409E40761E16408A
:100710003143F0BC01F097BA0CED00E0064900F05F
:10072000070208684FF6FF03184040EA0220034A18
:1007300010430860704700000CED00E00000FA056F
:100740002DE9F0470F46050061D0434E306800F0B8
:100750000700B84209D2306820F007003843306003
:10076000306800F00700B84251D128683B4C81073F
:1007700012D5400703D5606840F4E06060602878D7
:10078000000703D5606840F4605060606068A96845
:1007900020F0F000084360602878C00728D068681F
:1007A000012810D02168022810D0890700292EDAEC
:1007B000616821F0030101436160FFF723FF804678
:1007C00041F288390DE021688903EFE78901EDE7FF
:1007D000FFF718FFA0EB0801494502D90320BDE847
:1007E000F0876068696800F00C00B0EB810FEFD112
:1007F000306800F00700B8420BD9306820F00700DD
:1008000038433060306800F00700B84201D0012062
:10081000E5E72878400705D56068E96820F4E060DE
:10082000084360602878000706D56068296920F4CD
:10083000605040EAC100606000F038F86168084A22
:10084000C1F30311515CC8400649086006480068BE
:10085000FFF7F8FE0020C2E700200240001002402F
:10086000F41C00081800002010000020044805496E
:1008700000684968044AC1F30221515CC8407047CE
:100880001800002000100240041D0008044805491B
:1008900000684968044AC1F3C221515CC8407047EE
:1008A0001800002000100240041D000812A185B0AD
:1008B0000FC98DE80F0014A0144A00680490516815
:1008C000134801F00C03042B10D0082B0ED1C1F3F8
:1008D0008343C9031DF803000AD5516804AAC1F374
:1008E0004041515C0A4A5043B0FBF1F005B07047FB
:1008F00008494843FAE7000002030405060708090F
:100900000A0B0C0D0E0F1010010200000010024027
:1009100000127A0000093D002DE9F84F040070D064
:100920002078C04DC00749D06868C0F38100012815
:1009300007D06868C0F38100022809D16868C00345
:1009400006D52868800339D560680028E7D035E0EF
:100950006068B0F5803F0BD010B1B0F5A02F11D07A
:10096000286820F480302860286820F4802002E085
:10097000286840F480302860606890B1FFF742FE3C
:1009800006460AE0286840F480202860F0E700BFAF
:10099000FFF738FE801B642873D828688003F7D5DA
:1009A0000CE0FFF72FFE064605E000BFFFF72AFE2A
:1009B000801B6428F0D828688003F7D420789A4EEA
:1009C00080074FF001094FF0000839D5686810F032
:1009D0000C0F07D06868C0F38100022809D168684D
:1009E000C00306D42868800714D52069012808D1DF
:1009F00010E02069B0B1C6F80090FFF703FE07468B
:100A000005E00AE1FFF7FEFDC01B0228C4D82868F4
:100A10008007F7D52868616920F0F80040EAC10036
:100A200028600DE0C6F80080FFF7ECFD074604E003
:100A3000FFF7E8FDC01B022823D828688007F7D4F9
:100A4000207800072CD57948A169D9B1C0F8009069
:100A5000FFF7D8FD074604E0FFF7D4FDC01B0228CE
:100A60000FD8686A8007F7D571484FF4FA510068CB
:100A7000B0FBF1F0009000BF0098411E0091FAD247
:100A80000EE080E0C0F80080FFF7BCFD074604E000
:100A9000FFF7B8FDC01B022875D8686A8007F7D435
:100AA0002078400760D5E8690027C00008D4E869CD
:100AB00040F08050E861E869012700F08050009024
:100AC0005C480168C90513D40168834641F480710C
:100AD0000160FFF797FD824606E000BFFFF792FD39
:100AE000A0EB0A0064284ED8DBF80000C005F5D55D
:100AF000E06801280AD008B1052813D0286A20F040
:100B000001002862286A20F0040002E0286A40F010
:100B100001002862E06841F2883B98B1FFF772FD5E
:100B200082460BE0286A40F004002862EEE700BF2E
:100B3000FFF768FDA0EB0A0159455AD8286A8007DB
:100B4000F6D50CE0FFF75EFD824605E0FFF75AFDA3
:100B5000A0EB0A0159454CD8286A8007F6D41FB18A
:100B6000E86920F08050E861E06988B36968C1F302
:100B70008101022944D00228C6F8608004D0FFF722
:100B800041FD044638E034E0FFF73CFD074604E051
:100B9000FFF738FDC01B02282BD828688001F7D446
:100BA000206AB0F5803F05D16868A16820F4003064
:100BB00008436860D4E908010843696821F47411A6
:100BC00008436860C6F86090FFF71CFD044606E025
:100BD00025E000BFFFF716FD001B022809D8286892
:100BE0008001F7D51BE000BFFFF70CFD001B0228BA
:100BF00002D90320BDE8F88F28688001F4D40EE004
:100C00000128F7D06868226A00F48031914204D14B
:100C1000616A00F47010884201D00120EAE70020E8
:100C2000E8E7000000100240000042428004424217
:100C3000180000200070004010B5401EB0F1807F09
:100C400001D3012010BD4FF0E02460610F21601737
:100C500000F0F9FF0020A06107202061002010BDF6
:100C60007047704770B590F83C20012A19D00124D4
:100C700000F83C4F0222427050F83C3C5A689D6894
:100C800022F070060A684968324325F0800529433E
:100C90005A6050F83C2C9160447000210170084665
:100CA00070BD022070BD10B5040003D094F83D0063
:100CB00010B107E0012010BD002084F83C00204660
:100CC00000F00CF8022084F83D00211D206800F09F
:100CD000F9FD012084F83D00002010BD08B5006832
:100CE000B0F1804F12D10A48C16941F00101C161E0
:100CF000C069012200F00100009011461C20FFF79E
:100D0000EDFCBDE808401C20FFF7DABC08BD000080
:100D1000001002400168CA6842F00102CA6000681F
:100D2000816801F00701062903D0016841F0010143
:100D300001600020704770B5044690F83C0001281F
:100D400017D0012584F83C50022084F83D0020682B
:100D5000826822F0770222F47F428260086850287D
:100D600030D00DDC20284DD005DC98B310283BD1C5
:100D700048E0022070BD302844D0402834D139E00A
:100D8000602828D0702806D0B0F5805F2CD0B0F550
:100D9000005F29D10AE0CB68D1E90121206800F089
:100DA000C7FD2068816841F0770109E0CB68D1E98F
:100DB0000121206800F0BCFD2068816841F4804179
:100DC000816011E0CA684968206800F0C3FD5021C5
:100DD000206807E016E0CA684968206800F0CBFD8B
:100DE0006021206800F0AEFD84F83D50002084F8BA
:100DF0003C0070BDCA684968206800F0ABFD402126
:100E00002068EFE7226801461046EBE7704770B5AF
:100E10000446006801694FF00005C943890715D4ED
:100E2000C168C943890711D4E91E016101202077F7
:100E3000206880698007204602D0FFF7E7FF04E0C2
:100E400000F098F8204600F096F8257720680169B0
:100E5000C943490717D4C168C943490713D46FF080
:100E600004010161022020772068806910F4407F2E
:100E7000204602D0FFF7CAFF04E000F07BF82046CE
:100E800000F079F8257720680169C943090716D46D
:100E9000C168C943090712D46FF008010161042039
:100EA00020772068C0698007204602D0FFF7AEFF98
:100EB00004E000F05FF8204600F05DF82577206838
:100EC0000169C943C90617D4C168C943C90613D407
:100ED0006FF010010161082020772068C06910F4CC
:100EE000407F204602D0FFF791FF04E000F042F877
:100EF000204600F040F8257720680169C943C907FA
:100F000008D1C168C943C90704D1891E01612046BF
:100F100000F032F820680169C943090609D4C168A4
:100F2000C943090605D46FF0800101612046FFF72F
:100F300097FE20680169C943490609D4C168C943BD
:100F4000490605D46FF040010161204600F04EF8DB
:100F500020680169C94389060BD4C168C943890661
:100F600007D46FF0200101612046BDE87040FFF713
:100F700078BE70BD7047704710B5184900680968A1
:100F8000884228D1164CA088401C80B2A0F5407140
:100F9000A080E7391FD1E08878B1401E81B2E1809E
:100FA0000A22104800F0F5F9E088012805D10A224C
:100FB00004F108010B4800F0ECF962780A484FF49C
:100FC000805102B10122FFF717FB607820B10020A9
:100FD00060700020A08010BD0120F9E720010020F2
:100FE0000000002060010020000C014070477047A5
:100FF00070B5026804461068D168536910F00F0F8D
:1010000050D003F0010501F4907635435DD0C2075E
:1010100005D0CA0503D5E26B42F00102E263420744
:1010200005D5DA0703D0E26B42F00202E2638207E1
:1010300005D5DA0703D0E26B42F00402E26302074F
:1010400005D5DA0703D0E26B42F00802E263E26BF7
:10105000002A33D0800604D5880602D5204600F049
:10106000DFFC20684069E16BC0F38010090700D401
:1010700028B3204600F0C6FC2068416949061AD50D
:10108000416921F040014161606BA0B11B4941639E
:10109000606BFFF763F9002810D0606B416BBDE80F
:1010A00070400847830610D58B060ED52046BDE854
:1010B000704000F0B5BC2046FFF799FF70BD204698
:1010C000FFF795FF0020E06370BD030606D50B0611
:1010D00004D52046BDE8704000F04ABD4006F3D577
:1010E0004806F1D5D168204621F04001D160202189
:1010F00084F8391000F06CF970BD0000F519000893
:1011000070B5040004D094F83900002510B106E051
:10111000012070BD84F83850204600F023F82420C8
:1011200084F839002068C16821F40051C16020466C
:1011300000F0C2FC2068016921F49041016120683F
:10114000416921F02A0141612068C16841F40051E0
:10115000C160E563202084F8390084F83A0000205B
:1011600070BD000030B585B0002400940194029455
:1011700003940068184988422CD11848816941F4C9
:1011800080418161816901F480410491816941F06C
:10119000040181618069124D00F0040004904FF455
:1011A00000700090022001900320039069462846B9
:1011B000FFF732F92815CDE9000469462846029464
:1011C000FFF72AF9002211462520FFF787FA25208C
:1011D000FFF776FA05B030BD00380140001002403C
:1011E0000008014090F83A30202B22D1F9B1F2B139
:1011F00090F83830012B1CD081628285C285002195
:10120000C163222280F83A2080F838100168CA6849
:1012100042F48072CA6001684A6942F001024A6180
:101220000068C16841F02001C160002070470120C2
:1012300070470220704700002DE9F0412049006806
:10124000096888423AD11F4C00264FF480772078F5
:10125000FF280CD3267039461B48FEF76AFF4FF66D
:10126000FF730A2219A1164800F036F81EE0164D49
:10127000A1782954401CC0B22070284410F8011CE9
:101280000A2913D110F8020C0D280FD12846FEF7B9
:101290005BFF0A2190FBF1F201FB1200E080A878CD
:1012A000E070267039462846FEF743FFBDE8F0415E
:1012B00004490122891C0248FFF794BFBDE8F08170
:1012C000600100200000002020000020CAFDBEDDDB
:1012D000D2E7B3F6000000002DE9F843044690F889
:1012E00039001F4616460D46202850D1A5B19EB1A3
:1012F00094F8380001284AD0012084F838004FF0D3
:101300000008C4F83C80212084F83900FFF77AF9FE
:10131000A6848146E68426E00120BDE8F883E08CBF
:10132000401EE084A0684B46B0F5805F4FF000029D
:101330004FF080012046009703D000F04AFCE8B946
:101340000DE000F046FCC8B928882168C0F3080009
:101350004860206908B16D1C05E0AD1C03E0216800
:1013600015F8010B4860E08C0028D8D14B460022CC
:1013700040212046009700F02CFC08B10320CCE768
:10138000202084F8390084F838800020C5E7022046
:10139000C3E790F83930202B18D1A9B1A2B190F849
:1013A0003830012B12D001628284C2840021C163D3
:1013B000212280F8392080F838100068C16841F097
:1013C0008001C160002070470120704702207047F3
:1013D0007047FEE72DE9F04786B0002432480094BC
:1013E000019402940394816941F010018161816943
:1013F00001F010010491816941F02001816181694E
:1014000001F020010491816941F004018161816949
:1014100001F004010491816941F008018161806952
:10142000DFF8888000F008004FF460450490012246
:1014300029464046FFF7E0F8DFF8749001220621C4
:101440004846FFF7D9F8DFF86CA041F2FE07012209
:1014500039465046FFF7D0F80126CDE9005602255F
:1014600069464046CDE90245FEF7D6FF0620CDE9A4
:10147000000669464846CDE90245FEF7CDFFF0205B
:10148000CDE900050320039069464846FEF7C4FFF6
:10149000CDE9007669465046CDE90245FEF7BCFF2E
:1014A00006B0BDE8F08700000010024000100140C7
:1014B00000080140000C014010B586B00024164819
:1014C000009401940294039404944FF08041059495
:1014D00001604721C0E9011440F2E731C0E903147B
:1014E0008461FFF7E0FB08B1FEF736FF4FF4805050
:1014F000009069460848FFF71EFC08B1FEF72CFF74
:10150000049404A904480594FFF7ACFB002801D01B
:10151000FEF722FF06B010BD200100200C4810B5D8
:101520000A4901604FF4E1314160002181600C22E1
:10153000C160C0E904128161C161FFF7E1FD0028CB
:1015400003D0BDE81040FEF707BF10BD00380140D2
:1015500060010020FEE770477047000010B5134C93
:10156000002202212046FFF747F8002204212046EE
:10157000FFF742F8002208212046FFF73DF800223D
:1015800010212046FFF738F8002220212046FFF7DF
:1015900033F8002240212046FFF72EF82046002293
:1015A000BDE810408021FFF727B80000000C014083
:1015B00010B50E4C002202212046FFF71DF8002234
:1015C00040212046FFF718F8002280212046FFF72F
:1015D00013F8002208212046FFF70EF820460022CB
:1015E000BDE810401021FFF707B80000000C0140D3
:1015F00010B50B4C002204212046FEF7FDFF00220F
:1016000008212046FEF7F8FF002280212046FEF741
:10161000F3FF20460022BDE810404021FEF7ECBF5A
:10162000000C014010B5104C002202212046FEF7AC
:10163000E3FF002204212046FEF7DEFF00220821FE
:101640002046FEF7D9FF002210212046FEF7D4FFE6
:10165000002240212046FEF7CFFF20460022BDE8B1
:1016600010408021FEF7C8BF000C014010B5134C9C
:10167000012202212046FEF7BFFF0122042120465D
:10168000FEF7BAFF012208212046FEF7B5FF01222E
:1016900010212046FEF7B0FF012220212046FEF750
:1016A000ABFF012240212046FEF7A6FF2046012283
:1016B000BDE810408021FEF79FBF0000000C0140F4
:1016C00010B5064C002204212046FEF795FF204667
:1016D0000022BDE810400821FEF78EBF000C01403B
:1016E00010B5094C002202212046FEF785FF00229A
:1016F00004212046FEF780FF20460022BDE810406E
:101700000821FEF779BF0000000C014010B5104C15
:10171000002202212046FEF76FFF002240212046D2
:10172000FEF76AFF002208212046FEF765FF00222F
:1017300010212046FEF760FF002220212046FEF700
:101740005BFF20460022BDE810408021FEF754BF19
:10175000000C014010B50E4C002202212046FEF77D
:101760004BFF002204212046FEF746FF00220821FD
:101770002046FEF741FF002210212046FEF73CFFE5
:1017800020460022BDE810408021FEF735BF000052
:10179000000C014010B50E4C002202212046FEF73D
:1017A0002BFF002204212046FEF726FF0022802185
:1017B0002046FEF721FF002220212046FEF71CFFD5
:1017C00020460022BDE810401021FEF715BF0000A2
:1017D000000C014010B5104C002202212046FEF7FB
:1017E0000BFF002204212046FEF706FF00220821FD
:1017F0002046FEF701FF002210212046FEF7FCFEE6
:10180000002220212046FEF7F7FE20460022BDE8F8
:1018100010404021FEF7F0BE000C01407047FEF77B
:10182000F7BE30B58FB028216846FEF782FC142140
:101830000AA8FEF77EFC01210804CDE9001000246F
:10184000029402250491CDE907504FF4E01009906D
:101850006846FFF761F80F20CDE90A056802CDE977
:101860000C4002210AA80E94FEF76AFF0FB030BDAB
:101870000D48016841F00101016041680B4A1140C7
:10188000416001680A4A11400160016821F4802129
:101890000160416821F4FE0141604FF41F01816045
:1018A0000449C00308607047001002400000FFF8C0
:1018B000FFFFF6FE08ED00E00148FFF7A8BA0000C0
:1018C00020010020F0B50268164B174C174D4FF061
:1018D0008047984205D0B84203D0A04201D0A84228
:1018E00003D122F070064A683243984205D0B842CC
:1018F00003D0A04201D0A84203D122F44074CA68A8
:1019000022434C6922F08002224302608A68C2624C
:101910000A688262984201D109690163012141612B
:10192000F0BD0000002C0140000400400008004011
:1019300010B5846842EA032224F47F440A43224318
:10194000826010BD826822F070020A4342F00701F3
:101950008160704710B5036A046A24F001040462D0
:10196000846924F0F00444EA021423F00A020A43D2
:101970008461026210BD10B5036A23F01003036294
:101980008369046A23F4704343EA023224F0A0031B
:1019900043EA01118261016210BD0000094B40B1B0
:1019A00001280AD002280CD1002241031846FEF774
:1019B00023BE00224FF40051F8E700224FF400410B
:1019C000F4E770470010014010B5094C01225103A3
:1019D0002046FEF711FE0122D1032046FEF70CFE41
:1019E00020460122BDE810409103FEF705BE00002D
:1019F0000010014010B5406A0021C185C184FFF785
:101A0000F6FA10BD0168CA6822F49072CA600168D3
:101A10004A6922F001024A61202180F83A10704799
:101A200010B590F83A10222901D0022010BD81682B
:101A3000B1F5805F11D00169002901681FD04968A4
:101A400001F07F03816A4A1C82620B70C18D491EBE
:101A50000904090CC18518D02BE00269816A002AAB
:101A60000268526805D0D2B20A80816A491C81623C
:101A7000ECE7C2F308020A80816A891CF7E74A682A
:101A8000816A4B1C83620A70E0E70168CA6822F031
:101A90002002CA600168CA6822F48072CA600168C4
:101AA0004A6922F001024A61202180F83A10FFF7CA
:101AB000C3FB002010BD00002DE9F0410446006882
:101AC0000169E26821F44051114301612169A06874
:101AD0000843616908432168CA6841F20C639A436C
:101AE0000243CA6020684169A26921F44071114330
:101AF00041611E49206864253226884202D1FEF7E2
:101B0000C5FE01E0FEF7B2FE00EBC00101EB0011E3
:101B100060686FF018078000B1FBF0F2B2FBF5F2DD
:101B2000B1FBF0F37A4303EB8202B1FBF0F306EB77
:101B30000212B2FBF5F2B3FBF5F302F0F00202EB96
:101B40000312B1FBF0F3B1FBF0F0B0FBF5F078431A
:101B500003EB800006EB0010B0FBF5F0216800F00D
:101B60000F0010448860BDE8F0810000003801409B
:101B700090F83910212901D0022070478168B1F511
:101B8000805F016A0BD04A1C0262026809785160CA
:101B9000C18C491E0904090CC1840ED017E00988C4
:101BA0000268C1F30801516001690029016A02D08D
:101BB000491C0162ECE7891CFBE70168CA6822F056
:101BC0008002CA600068C16841F04001C160002025
:101BD00070472DE9F041984617460E460446069D8B
:101BE0001DE0681C1BD02DB1FEF70CFDA0EB08001A
:101BF000A84214D92068C16821F4D071C16020685E
:101C0000416921F001014161202084F8390084F804
:101C10003A00002084F838000320BDE8F0812068F5
:101C2000006836EA000004D00020B842D9D0002075
:101C3000F3E70120F9E700000148FFF7D9B90000F8
:101C400060010020FEE70907090E002804DB00F10F
:101C5000E02080F80014704700F00F0000F1E02051
:101C600080F8141D70470000004870471C000020D9
:101C700002E008C8121F08C1002AFAD17047704755
:101C8000002001E001C1121F002AFBD170470000B3
:101C9000FEF7C6FCFFF7C5FDFFF79CFBFFF70CFC4A
:101CA000FFF73CFC1048FFF735F801220F491048B8
:101CB000FFF798FA0D4C0020A41EE080FFF784FE89
:101CC0000A25E078FFF76AFEE088B0FBF5F105FB36
:101CD00011010020FEF7F4FAE088B0FBF5F0C1B284
:101CE0000120FEF7EDFAECE72001002002000020C1
:101CF0006001002000000000000000000102030459
:101D000006070809000000000102030400404040EB
:101D100040404040404041414141414040404040BE
:101D2000404040404040404040404040400502026A
:101D30000202020202020202020202020220202029
:101D40002020202020202002020202020202909085
:101D50009090909010101010101010101010101083
:101D600010101010101010100202020202028888D7
:101D700088888888080808080808080808080808E3
:101D800008080808080808080202020240000000CB
:101D90000D1D0008B41D00080000002020000000F8
:101DA000701C0008D41D00082000002080050000E1
:101DB000801C000800000000000000006F66660044
:101DC0000100000010000000000000000024F400EA
:041DD000000000000F
:04000005080000ED02
:00000001FF
